:020000040000FA
:060000000A128A11F92F1B
:100F70000A128A11D0270A128A11C730F300C02F33
:100F8000F30BBF2FC32FC42F831203139F18C92F36
:100F9000CA2FCB2F9F141E0885000A128A11002821
:100FA00083160313850187010130890025308600EF
:100FB00083160317880120308900831603130F0856
:100FC0008F3960388F0089150914831203131F08A5
:100FD0003F3940389F001F08C33934389F001F1421
:100FE000831603139F139F121F128312031385018D
:100FF0000800F001F101F20183010A128A11B82FF1
:04400E00D4E0FFFFFC
:00000001FF
