:020000040000FA
:060000000A128A11F92F1B
:100EFC00C730F300812FF30B802F842F852F8312A3
:100F0C0003139F188A2F8B2F8C2F9F141E0885007C
:100F1C0008000A128A11A2270A128A110A128A11CF
:100F2C007E270A128A110A128A11C8270A128A11FC
:100F3C00942F0A128A11002883160313850101309D
:100F4C0089008701E530860083160317880120305D
:100F5C008900831603130F088F3960388F008915A9
:100F6C000914831203131F083F3940389F001F08D0
:100F7C00C33934389F001F14831603139F139F1219
:100F8C001F12080083120313061FCD2FCE2FD02F54
:100F9C00F201F20A061BD32FD42FE12F7203031D8B
:100FAC00D82FD92FE12F7008013EF3007308F00001
:100FBC0070088700F201861FE42FE52FE72FF1015F
:100FCC00F10A861BEA2FEB2FF82F7103031DEF2F6D
:100FDC00F02FF82F7008FF3EF3007308F000700834
:100FEC008700F1010800F001F101F20183010A12FE
:040FFC008A118F2F98
:04400E00D4E0FFFFFC
:00000001FF
