:020000040000FA
:060000000A128A110C280F
:10000800FE00030EF8000A08F9000A128A11BC283B
:100018000A128A110F2883134030FD000030FE00B9
:10002800E730FF00203084000A128A112B210A12BF
:100038008A11F001F101F201F301F401F501F60171
:1000480083010A128A114D297008740203182D2899
:100058002E28322883120313081435288312031319
:100068000810C730FC003828FC0B37283B283C28F0
:10007800831203139F18412842284F280A128A1115
:100088003A210A128A110A128A1107210A128A11C0
:10009800831203139F141E08FC007C08F3001E083B
:1000A800FC007C08F2001E08FC007C08F0002828F0
:1000B800080083120313861F622863286728F60145
:1000C800F60AF5018B13861B6A286B2878287603B5
:1000D800031D6F28702878287408013EF7007708F8
:1000E800F400F6018B179028061F7B287C288028AF
:1000F800F601F501F50A8B13061B8328842890283E
:100108007503031D882889289028F5017408FF3E87
:10011800F7007708F4008B1708008316031385018E
:1001280087018801E0308600831603178801203094
:1001380089007030831603138F043530831203133C
:100148009F00831603139F01E8308B000C1783125E
:1001580003130C13C03083160313960080308100FC
:1001680002308312031381008701F301F2010800B2
:100178000B1CBF28C028C8280B108B130A128A1121
:100188005D200A128A11E028831203130C1FCD2860
:10019800CE28D0280C13E0280B1DD328D428E0281B
:1001A8000A128A115F210A128A110B110230831276
:1001B800031381007408850079088A00780E83008B
:1001C800FE0E7E0E09003F3406345B344F3466342D
:1001D8006D347D3407347F346F3477347C3439346C
:1001E8005E34793471343F3406345B344F346634CA
:1001F8006D347D3407347F346F3477347C3439344C
:100208005E34793471347103031D0B290C291729C5
:100218007308303E84008313000883120313870099
:100228008815081126297108031D1B291C29262950
:100238007208203E8400831300088312031387008A
:100248008811081508007E088A007F0882000A12B3
:100258008A1127210A128A118000840A04087D065F
:1002680003190034FF0A0319FE0A2B2973080F39F2
:10027800FA007A08F3007208FA0004300310FA0C46
:10028800FF3E031D42297A080F39FB007B08F20064
:1002980008000A128A1191200A128A110A128A1178
:1002A80028200A128A110A128A1107210A128A11B1
:1002B8000A128A110C287103031D6329642966290F
:0A02C800F1016829F101F10A0800B4
:04400E00D4E0FFFFFC
:00000001FF
