:020000040000FA
:060000000A128A110C280F
:10000800FE00030EF9000A08FA000A128A112828CD
:100018000A128A110F2883134030FD000030FE00B9
:10002800E530FF00203084000A128A1129210A12C3
:100038008A11F001F101F201F301F401F501F60171
:1000480083010A128A114B290B1C2B282C283328D0
:100058000B100A128A115E200A128A11572883127D
:1000680003130C1F3828392847280C131E08F800DA
:100078007808F3001E08F8007808F2001E08F80057
:100088007808F00057280B1D4A284B2857280A12D1
:100098008A115D210A128A110B110230831203138F
:1000A8008100740885007A088A00790E8300FE0EA4
:1000B8007E0E090083120313861F632864286828AC
:1000C800F601F60AF5018B13861B6B286C28792834
:1000D8007603031D7028712879287408013EF700FB
:1000E8007708F400F6018B179128061F7C287D28D5
:1000F8008128F601F501F50A8B13061B842885284B
:1001080091287503031D89288A289128F501740808
:10011800FF3EF7007708F4008B17080083160313D7
:10012800850187010C308800E030860083160317AC
:100138008801203089007130831603138F007530D1
:10014800831203139F00831603139F01E8308B006B
:100158000C17831203130C13C03083160313960075
:100168008030810002308312031381008701080068
:10017800700874020318C128C228C6288312031302
:100188000814C928831203130810C730FD00CC28AF
:10019800FD0BCB28CF28D028831203139F18D5280E
:1001A800D628BC280A128A1138210A128A110A1282
:1001B8008A1105210A128A11831203139F14BC287D
:1001C80008003F3406346D344F3466346D347D3462
:1001D80007347F346F3477347C3439345E3479347F
:1001E80071343F3406346D344F3466346D347D34A5
:1001F80007347F346F3477347C3439345E3479345F
:1002080071347103031D09290A2915297308303E21
:1002180084008313000883120313870088150811CC
:1002280024297108031D19291A2924298312031363
:10023800881108157208203E84008313000887007F
:1002480008007E088A007F0882000A128A11252188
:100258000A128A118000840A04087D0603190034F2
:10026800FF0A0319FE0A292973080F39FB007B08C6
:10027800F3007208FB0004300310FB0CFF3E031D63
:1002880040297B080F39FC007C08F20008000A129C
:100298008A1192200A128A110A128A11BC200A12A3
:1002A8008A110A128A1105210A128A110A128A1160
:1002B8000C287103031D612962296429F10166294B
:0602C800F101F10A08003B
:04400E00D4E0FFFFFC
:00000001FF
